:03000000020D727C
:0C0D7200787FE4F6D8FD75811D020D109D
:100C4800120C6D120CEFC287C280C281C2A7C28388
:100C5800C284C285C2A3120C6D120CEFE58225E096
:050C6800FFE58333FEEF
:100C6D00E4FDFCC3ED9FEC9E5015E4FBFA0BBB00BD
:0F0C7D00010AEB64644A70F50DBD00010C80E4C0
:010C8C002245
:10080000900002D294D295D296D297C290D291D231
:1008100092D29320940DAF82AE83120C6D3094FD72
:100820007F372220950DAF82AE83120C6D3095FD7F
:100830007F382220960DAF82AE83120C6D3096FD6C
:100840007F392220970DAF82AE83120C6D3097FD59
:100850007F2F22D290C291D292D29320940DAF8258
:10086000AE83120C6D3094FD7F342220950DAF8243
:10087000AE83120C6D3095FD7F352220960DAF8230
:10088000AE83120C6D3096FD7F362220970DAF821D
:10089000AE83120C6D3097FD7F2A22D290D291C286
:1008A00092D29320940DAF82AE83120C6D3094FDE2
:1008B0007F312220950DAF82AE83120C6D3095FDF5
:1008C0007F322220960DAF82AE83120C6D3096FDE2
:1008D0007F332220970DAF82AE83120C6D3097FDCF
:1008E0007F2D22D290D291D292C29320940DAF82CA
:1008F000AE83120C6D3094FD7F432220950DAF82A4
:10090000AE83120C6D3095FD7F302220960DAF82A4
:10091000AE83120C6D3096FD7F3D2220970DAF8285
:0D092000AE83120C6D3097FD7F2B227F00FF
:01092D0022A7
:100CD000C286AF82AE83120C6D120CEFC287C28047
:0F0CE000C281C282C283C284C285C286120C6DD9
:100CEF00D280D281D282D283D284D285D286D28749
:100CFF00D2A0D2A1D2A2D2A3D2A4D2A5D2A6D2A739
:010D0F0022C1
:10092E00120CEFEF120C2209D62A09842B09AC2DDA
:10093E000A0A2F09EE3009AE3109B63209C433095D
:10094E008A34099035099C36096937097438097C4F
:10095E00390A003D09E84300000A10C280C281C274
:10096E00A2C2A6020A13C280C281C2828024C280A1
:10097E00C281C2828010C2A1C2A58022C283C28758
:10098E00801CC280C281C283C284C285800CC28098
:10099E00C281C283C284C285C286C287802480225D
:1009AE00C2A2C282C283805DC280C281C282C28460
:1009BE00C285C286800CC280C281C282C283C284BA
:1009CE00C285C2A7C2A3803DC2A7C2A0C2A1C2A2B5
:1009DE00C2A3C2A4C2A5C2A6802BC280C2818008B7
:1009EE00C280C281C282C283C284C285C286C287CD
:1009FE008013C2A7C2A3C285C2848009C2A6C2A2A6
:0C0A0E008003120CEF7FF47E01020C6DDF
:100A1A00900190120C61C287C280C281C282C2A7B1
:100A2A00C2A3120CD0C287120CE6C2A1C2A5120C34
:100A3A006D120CEFC287C280C281120CE6C287C255
:100A4A0080C281C2A7C2A3120CE6120C64C2A1C260
:100A5A00A5AF82AE83120C48C287C280C281C2840B
:100A6A00C285120CD0C287C280C281C282C283C22E
:100A7A00A1C2A5120CEAC2A1C2A5120C6D120CEFFA
:100A8A00C287C286C2A0C2A4C283C283C282120C17
:100A9A006D120CEFC287C280C281C2A3120CE4128B
:100AAA000C64E4F50CF50D120C64B2A0B2A2B28685
:100ABA00B285B284B283120C64120CEF050DE50DF7
:0F0ACA007002050CC39405E50C6480948040D83D
:010AD90022FA
:100ADA00900190AF82AE83120C6D120CEFC287C2E6
:100AEA0080C281C2A3120CE4C287C283C282120CE2
:100AFA00E6C287C280C281C2A3C2A7120CE6C2871D
:100B0A00C280C281C2A7C283C284C285C2A3120C98
:100B1A0048C287C286C280C281C284C285AF82AE01
:100B2A0083120C6D120CEFC287C286C280C281C2C8
:100B3A0084C285C282C283120C6D120CEFC287C2B4
:100B4A0086C2A0C2A6120C6D120CEFC287C286C260
:100B5A0080C281C284C285C2A7C2A3120C6D020CD4
:010B6A00EF9B
:100D4500900190120C61C2A5C2A1C281C282C28368
:100D5500C284AF82AE83120C6D120CEFC2A5C2A184
:0D0D6500C2A2C2A4120C6D120CEF020C6DA4
:060C8D008B0C8A0D890E9C
:100C9300E4F512F513FFFEAB0FAA10A9118F828E94
:100CA30083120BF5FDAB0CAA0DA90E8F828E831256
:100CB3000BF5B505080513E513700205120FBF0008
:0C0CC300010EEF64044E70CFAE12AF13B0
:010CCF002202
:090D7E00C2B2D288D2A8D2AF2281
:03000300020B6B82
:100B6B00C0E0C083C082C0D075D000C000C001C03F
:0B0B7B0002C003C004C005C006C00794
:100B8600120ADA20B250750A00750B00C3E50B9401
:100B960004E50A9400501D1208008F1812092EE56C
:100BA6001860E9741A250BF8A618050BE50B70DC1E
:100BB600050A80D8750F007510007511147B007A30
:100BC60000791A120C8DEF64044E7005120D4580E3
:060BD600FB120A1A80FB6D
:100BDC00D007D006D005D004D003D002D001D0006D
:090BEC00D0D0D082D083D0E032D9
:100D1000120D7EE4F508F509C3E5099404E508948D
:100D200000501D1208008F1912092EE51960E97490
:100D3000142509F8A6190509E50970DC050880D80D
:050D4000120D4580CEFC
:100BF500BB010CE58229F582E5833AF583E02250B5
:100C050006E92582F8E622BBFE06E92582F8E222FE
:0D0C1500E58229F582E5833AF583E4932218
:100C2200D083D082F8E4937012740193700DA3A361
:100C320093F8740193F5828883E473740293686075
:060C4200EFA3A3A380DF75
:00000001FF
